{
  "_format": "hh-sol-artifact-1",
  "contractName": "MultiTokenERC20",
  "sourceName": "contracts/MultiTokenERC20.sol",
  "abi": [
    {
      "inputs": [],
      "stateMutability": "nonpayable",
      "type": "constructor"
    },
    {
      "inputs": [
        {
          "internalType": "address",
          "name": "owner",
          "type": "address"
        }
      ],
      "name": "OwnableInvalidOwner",
      "type": "error"
    },
    {
      "inputs": [
        {
          "internalType": "address",
          "name": "account",
          "type": "address"
        }
      ],
      "name": "OwnableUnauthorizedAccount",
      "type": "error"
    },
    {
      "anonymous": false,
      "inputs": [
        {
          "indexed": true,
          "internalType": "address",
          "name": "previousOwner",
          "type": "address"
        },
        {
          "indexed": true,
          "internalType": "address",
          "name": "newOwner",
          "type": "address"
        }
      ],
      "name": "OwnershipTransferred",
      "type": "event"
    },
    {
      "anonymous": false,
      "inputs": [
        {
          "indexed": true,
          "internalType": "string",
          "name": "name",
          "type": "string"
        },
        {
          "indexed": true,
          "internalType": "address",
          "name": "tokenAddress",
          "type": "address"
        }
      ],
      "name": "TokenCreated",
      "type": "event"
    },
    {
      "anonymous": false,
      "inputs": [
        {
          "indexed": false,
          "internalType": "string",
          "name": "name",
          "type": "string"
        },
        {
          "indexed": false,
          "internalType": "address",
          "name": "from",
          "type": "address"
        },
        {
          "indexed": false,
          "internalType": "uint256",
          "name": "amount",
          "type": "uint256"
        }
      ],
      "name": "TokensBurned",
      "type": "event"
    },
    {
      "anonymous": false,
      "inputs": [
        {
          "indexed": false,
          "internalType": "string",
          "name": "name",
          "type": "string"
        },
        {
          "indexed": false,
          "internalType": "address",
          "name": "to",
          "type": "address"
        },
        {
          "indexed": false,
          "internalType": "uint256",
          "name": "amount",
          "type": "uint256"
        }
      ],
      "name": "TokensMinted",
      "type": "event"
    },
    {
      "inputs": [
        {
          "internalType": "string",
          "name": "name",
          "type": "string"
        },
        {
          "internalType": "address",
          "name": "from",
          "type": "address"
        },
        {
          "internalType": "uint256",
          "name": "amount",
          "type": "uint256"
        }
      ],
      "name": "burnTokens",
      "outputs": [],
      "stateMutability": "nonpayable",
      "type": "function"
    },
    {
      "inputs": [
        {
          "internalType": "string",
          "name": "name",
          "type": "string"
        },
        {
          "internalType": "string",
          "name": "symbol",
          "type": "string"
        }
      ],
      "name": "createToken",
      "outputs": [],
      "stateMutability": "nonpayable",
      "type": "function"
    },
    {
      "inputs": [
        {
          "internalType": "string",
          "name": "name",
          "type": "string"
        }
      ],
      "name": "getTokenAddress",
      "outputs": [
        {
          "internalType": "address",
          "name": "",
          "type": "address"
        }
      ],
      "stateMutability": "view",
      "type": "function"
    },
    {
      "inputs": [
        {
          "internalType": "string",
          "name": "name",
          "type": "string"
        },
        {
          "internalType": "address",
          "name": "to",
          "type": "address"
        },
        {
          "internalType": "uint256",
          "name": "amount",
          "type": "uint256"
        }
      ],
      "name": "mintTokens",
      "outputs": [],
      "stateMutability": "nonpayable",
      "type": "function"
    },
    {
      "inputs": [],
      "name": "owner",
      "outputs": [
        {
          "internalType": "address",
          "name": "",
          "type": "address"
        }
      ],
      "stateMutability": "view",
      "type": "function"
    },
    {
      "inputs": [],
      "name": "renounceOwnership",
      "outputs": [],
      "stateMutability": "nonpayable",
      "type": "function"
    },
    {
      "inputs": [
        {
          "internalType": "string",
          "name": "",
          "type": "string"
        }
      ],
      "name": "tokens",
      "outputs": [
        {
          "internalType": "address",
          "name": "",
          "type": "address"
        }
      ],
      "stateMutability": "view",
      "type": "function"
    },
    {
      "inputs": [
        {
          "internalType": "address",
          "name": "newOwner",
          "type": "address"
        }
      ],
      "name": "transferOwnership",
      "outputs": [],
      "stateMutability": "nonpayable",
      "type": "function"
    }
  ],
  "bytecode": "0x60806040523480156200001157600080fd5b5033600073ffffffffffffffffffffffffffffffffffffffff168173ffffffffffffffffffffffffffffffffffffffff1603620000885760006040517f1e4fbdf70000000000000000000000000000000000000000000000000000000081526004016200007f9190620001a9565b60405180910390fd5b6200009981620000a060201b60201c565b50620001c6565b60008060009054906101000a900473ffffffffffffffffffffffffffffffffffffffff169050816000806101000a81548173ffffffffffffffffffffffffffffffffffffffff021916908373ffffffffffffffffffffffffffffffffffffffff1602179055508173ffffffffffffffffffffffffffffffffffffffff168173ffffffffffffffffffffffffffffffffffffffff167f8be0079c531659141344cd1fd0a4f28419497f9722a3daafe3b4186f6b6457e060405160405180910390a35050565b600073ffffffffffffffffffffffffffffffffffffffff82169050919050565b6000620001918262000164565b9050919050565b620001a38162000184565b82525050565b6000602082019050620001c0600083018462000198565b92915050565b612dde80620001d66000396000f3fe60806040523480156200001157600080fd5b5060043610620000945760003560e01c8063715018a61162000063578063715018a6146200012f5780638da5cb5b146200013b578063c4091236146200015d578063f2fde38b14620001935762000094565b806304c2320b14620000995780632f2f2d5614620000cf578063643c1de614620000ef57806370944646146200010f575b600080fd5b620000b76004803603810190620000b1919062000d33565b620001b3565b604051620000c6919062000dc9565b60405180910390f35b620000ed6004803603810190620000e7919062000de6565b620001fc565b005b6200010d600480360381019062000107919062000ed7565b620004d9565b005b6200012d600480360381019062000127919062000ed7565b62000688565b005b620001396200093b565b005b6200014562000953565b60405162000154919062000dc9565b60405180910390f35b6200017b600480360381019062000175919062000d33565b6200097c565b6040516200018a919062000dc9565b60405180910390f35b620001b16004803603810190620001ab919062000f52565b620009c6565b005b6001818051602081018201805184825260208301602085012081835280955050505050506000915054906101000a900473ffffffffffffffffffffffffffffffffffffffff1681565b6200020662000a53565b600073ffffffffffffffffffffffffffffffffffffffff1660018360405162000230919062000ffd565b908152602001604051809103902060009054906101000a900473ffffffffffffffffffffffffffffffffffffffff1673ffffffffffffffffffffffffffffffffffffffff1614620002b8576040517f08c379a0000000000000000000000000000000000000000000000000000000008152600401620002af9062001077565b60405180910390fd5b60008282604051620002ca9062000baf565b620002d7929190620010da565b604051809103906000f080158015620002f4573d6000803e3d6000fd5b509050806001846040516200030a919062000ffd565b908152602001604051809103902060006101000a81548173ffffffffffffffffffffffffffffffffffffffff021916908373ffffffffffffffffffffffffffffffffffffffff160217905550600073ffffffffffffffffffffffffffffffffffffffff168173ffffffffffffffffffffffffffffffffffffffff1603620003c8576040517f08c379a0000000000000000000000000000000000000000000000000000000008152600401620003bf9062001165565b60405180910390fd5b8073ffffffffffffffffffffffffffffffffffffffff16600184604051620003f1919062000ffd565b908152602001604051809103902060009054906101000a900473ffffffffffffffffffffffffffffffffffffffff1673ffffffffffffffffffffffffffffffffffffffff161462000479576040517f08c379a00000000000000000000000000000000000000000000000000000000081526004016200047090620011fd565b60405180910390fd5b8073ffffffffffffffffffffffffffffffffffffffff1683604051620004a0919062000ffd565b60405180910390207ffdc90d498a1602314464a0907c52c51090745809fb1655b49df42e9333129f7060405160405180910390a3505050565b620004e362000a53565b600073ffffffffffffffffffffffffffffffffffffffff166001846040516200050d919062000ffd565b908152602001604051809103902060009054906101000a900473ffffffffffffffffffffffffffffffffffffffff1673ffffffffffffffffffffffffffffffffffffffff160362000595576040517f08c379a00000000000000000000000000000000000000000000000000000000081526004016200058c906200126f565b60405180910390fd5b600183604051620005a7919062000ffd565b908152602001604051809103902060009054906101000a900473ffffffffffffffffffffffffffffffffffffffff1673ffffffffffffffffffffffffffffffffffffffff166340c10f1983836040518363ffffffff1660e01b815260040162000612929190620012a2565b600060405180830381600087803b1580156200062d57600080fd5b505af115801562000642573d6000803e3d6000fd5b505050507f4506728dbc4ce36dc8444a8417251cc076c49a64b563cfb19aa2d01831e95c968383836040516200067b93929190620012cf565b60405180910390a1505050565b6200069262000a53565b600073ffffffffffffffffffffffffffffffffffffffff16600184604051620006bc919062000ffd565b908152602001604051809103902060009054906101000a900473ffffffffffffffffffffffffffffffffffffffff1673ffffffffffffffffffffffffffffffffffffffff160362000744576040517f08c379a00000000000000000000000000000000000000000000000000000000081526004016200073b906200126f565b60405180910390fd5b8060018460405162000757919062000ffd565b908152602001604051809103902060009054906101000a900473ffffffffffffffffffffffffffffffffffffffff1673ffffffffffffffffffffffffffffffffffffffff166370a08231846040518263ffffffff1660e01b8152600401620007c0919062000dc9565b602060405180830381865afa158015620007de573d6000803e3d6000fd5b505050506040513d601f19601f820116820180604052508101906200080491906200132a565b101562000848576040517f08c379a00000000000000000000000000000000000000000000000000000000081526004016200083f90620013ac565b60405180910390fd5b6001836040516200085a919062000ffd565b908152602001604051809103902060009054906101000a900473ffffffffffffffffffffffffffffffffffffffff1673ffffffffffffffffffffffffffffffffffffffff166379cc679083836040518363ffffffff1660e01b8152600401620008c5929190620012a2565b600060405180830381600087803b158015620008e057600080fd5b505af1158015620008f5573d6000803e3d6000fd5b505050507fb4ed7d22338308478e19143a97829ebd4d2121943ec22fe5bc9142d3fe3811f88383836040516200092e93929190620012cf565b60405180910390a1505050565b6200094562000a53565b62000951600062000ae3565b565b60008060009054906101000a900473ffffffffffffffffffffffffffffffffffffffff16905090565b600060018260405162000990919062000ffd565b908152602001604051809103902060009054906101000a900473ffffffffffffffffffffffffffffffffffffffff169050919050565b620009d062000a53565b600073ffffffffffffffffffffffffffffffffffffffff168173ffffffffffffffffffffffffffffffffffffffff160362000a455760006040517f1e4fbdf700000000000000000000000000000000000000000000000000000000815260040162000a3c919062000dc9565b60405180910390fd5b62000a508162000ae3565b50565b62000a5d62000ba7565b73ffffffffffffffffffffffffffffffffffffffff1662000a7d62000953565b73ffffffffffffffffffffffffffffffffffffffff161462000ae15762000aa362000ba7565b6040517f118cdaa700000000000000000000000000000000000000000000000000000000815260040162000ad8919062000dc9565b60405180910390fd5b565b60008060009054906101000a900473ffffffffffffffffffffffffffffffffffffffff169050816000806101000a81548173ffffffffffffffffffffffffffffffffffffffff021916908373ffffffffffffffffffffffffffffffffffffffff1602179055508173ffffffffffffffffffffffffffffffffffffffff168173ffffffffffffffffffffffffffffffffffffffff167f8be0079c531659141344cd1fd0a4f28419497f9722a3daafe3b4186f6b6457e060405160405180910390a35050565b600033905090565b6119da80620013cf83390190565b6000604051905090565b600080fd5b600080fd5b600080fd5b600080fd5b6000601f19601f8301169050919050565b7f4e487b7100000000000000000000000000000000000000000000000000000000600052604160045260246000fd5b62000c268262000bdb565b810181811067ffffffffffffffff8211171562000c485762000c4762000bec565b5b80604052505050565b600062000c5d62000bbd565b905062000c6b828262000c1b565b919050565b600067ffffffffffffffff82111562000c8e5762000c8d62000bec565b5b62000c998262000bdb565b9050602081019050919050565b82818337600083830152505050565b600062000ccc62000cc68462000c70565b62000c51565b90508281526020810184848401111562000ceb5762000cea62000bd6565b5b62000cf884828562000ca6565b509392505050565b600082601f83011262000d185762000d1762000bd1565b5b813562000d2a84826020860162000cb5565b91505092915050565b60006020828403121562000d4c5762000d4b62000bc7565b5b600082013567ffffffffffffffff81111562000d6d5762000d6c62000bcc565b5b62000d7b8482850162000d00565b91505092915050565b600073ffffffffffffffffffffffffffffffffffffffff82169050919050565b600062000db18262000d84565b9050919050565b62000dc38162000da4565b82525050565b600060208201905062000de0600083018462000db8565b92915050565b6000806040838503121562000e005762000dff62000bc7565b5b600083013567ffffffffffffffff81111562000e215762000e2062000bcc565b5b62000e2f8582860162000d00565b925050602083013567ffffffffffffffff81111562000e535762000e5262000bcc565b5b62000e618582860162000d00565b9150509250929050565b62000e768162000da4565b811462000e8257600080fd5b50565b60008135905062000e968162000e6b565b92915050565b6000819050919050565b62000eb18162000e9c565b811462000ebd57600080fd5b50565b60008135905062000ed18162000ea6565b92915050565b60008060006060848603121562000ef35762000ef262000bc7565b5b600084013567ffffffffffffffff81111562000f145762000f1362000bcc565b5b62000f228682870162000d00565b935050602062000f358682870162000e85565b925050604062000f488682870162000ec0565b9150509250925092565b60006020828403121562000f6b5762000f6a62000bc7565b5b600062000f7b8482850162000e85565b91505092915050565b600081519050919050565b600081905092915050565b60005b8381101562000fba57808201518184015260208101905062000f9d565b60008484015250505050565b600062000fd38262000f84565b62000fdf818562000f8f565b935062000ff181856020860162000f9a565b80840191505092915050565b60006200100b828462000fc6565b915081905092915050565b600082825260208201905092915050565b7f546f6b656e20616c726561647920657869737473000000000000000000000000600082015250565b60006200105f60148362001016565b91506200106c8262001027565b602082019050919050565b60006020820190508181036000830152620010928162001050565b9050919050565b6000620010a68262000f84565b620010b2818562001016565b9350620010c481856020860162000f9a565b620010cf8162000bdb565b840191505092915050565b60006040820190508181036000830152620010f6818562001099565b905081810360208301526200110c818462001099565b90509392505050565b7f546f6b656e206372656174696f6e206661696c65640000000000000000000000600082015250565b60006200114d60158362001016565b91506200115a8262001115565b602082019050919050565b6000602082019050818103600083015262001180816200113e565b9050919050565b7f546f6b656e2061646472657373206e6f742073746f72656420636f727265637460008201527f6c79000000000000000000000000000000000000000000000000000000000000602082015250565b6000620011e560228362001016565b9150620011f28262001187565b604082019050919050565b600060208201905081810360008301526200121881620011d6565b9050919050565b7f546f6b656e20646f6573206e6f74206578697374000000000000000000000000600082015250565b60006200125760148362001016565b915062001264826200121f565b602082019050919050565b600060208201905081810360008301526200128a8162001248565b9050919050565b6200129c8162000e9c565b82525050565b6000604082019050620012b9600083018562000db8565b620012c8602083018462001291565b9392505050565b60006060820190508181036000830152620012eb818662001099565b9050620012fc602083018562000db8565b6200130b604083018462001291565b949350505050565b600081519050620013248162000ea6565b92915050565b60006020828403121562001343576200134262000bc7565b5b6000620013538482850162001313565b91505092915050565b7f496e73756666696369656e742062616c616e6365000000000000000000000000600082015250565b60006200139460148362001016565b9150620013a1826200135c565b602082019050919050565b60006020820190508181036000830152620013c78162001385565b905091905056fe60806040523480156200001157600080fd5b50604051620019da380380620019da833981810160405281019062000037919062000348565b33828281600390816200004b919062000618565b5080600490816200005d919062000618565b505050600073ffffffffffffffffffffffffffffffffffffffff168173ffffffffffffffffffffffffffffffffffffffff1603620000d55760006040517f1e4fbdf7000000000000000000000000000000000000000000000000000000008152600401620000cc919062000744565b60405180910390fd5b620000e681620000ef60201b60201c565b50505062000761565b6000600560009054906101000a900473ffffffffffffffffffffffffffffffffffffffff16905081600560006101000a81548173ffffffffffffffffffffffffffffffffffffffff021916908373ffffffffffffffffffffffffffffffffffffffff1602179055508173ffffffffffffffffffffffffffffffffffffffff168173ffffffffffffffffffffffffffffffffffffffff167f8be0079c531659141344cd1fd0a4f28419497f9722a3daafe3b4186f6b6457e060405160405180910390a35050565b6000604051905090565b600080fd5b600080fd5b600080fd5b600080fd5b6000601f19601f8301169050919050565b7f4e487b7100000000000000000000000000000000000000000000000000000000600052604160045260246000fd5b6200021e82620001d3565b810181811067ffffffffffffffff8211171562000240576200023f620001e4565b5b80604052505050565b600062000255620001b5565b905062000263828262000213565b919050565b600067ffffffffffffffff821115620002865762000285620001e4565b5b6200029182620001d3565b9050602081019050919050565b60005b83811015620002be578082015181840152602081019050620002a1565b60008484015250505050565b6000620002e1620002db8462000268565b62000249565b9050828152602081018484840111156200030057620002ff620001ce565b5b6200030d8482856200029e565b509392505050565b600082601f8301126200032d576200032c620001c9565b5b81516200033f848260208601620002ca565b91505092915050565b60008060408385031215620003625762000361620001bf565b5b600083015167ffffffffffffffff811115620003835762000382620001c4565b5b620003918582860162000315565b925050602083015167ffffffffffffffff811115620003b557620003b4620001c4565b5b620003c38582860162000315565b9150509250929050565b600081519050919050565b7f4e487b7100000000000000000000000000000000000000000000000000000000600052602260045260246000fd5b600060028204905060018216806200042057607f821691505b602082108103620004365762000435620003d8565b5b50919050565b60008190508160005260206000209050919050565b60006020601f8301049050919050565b600082821b905092915050565b600060088302620004a07fffffffffffffffffffffffffffffffffffffffffffffffffffffffffffffffff8262000461565b620004ac868362000461565b95508019841693508086168417925050509392505050565b6000819050919050565b6000819050919050565b6000620004f9620004f3620004ed84620004c4565b620004ce565b620004c4565b9050919050565b6000819050919050565b6200051583620004d8565b6200052d620005248262000500565b8484546200046e565b825550505050565b600090565b6200054462000535565b620005518184846200050a565b505050565b5b8181101562000579576200056d6000826200053a565b60018101905062000557565b5050565b601f821115620005c85762000592816200043c565b6200059d8462000451565b81016020851015620005ad578190505b620005c5620005bc8562000451565b83018262000556565b50505b505050565b600082821c905092915050565b6000620005ed60001984600802620005cd565b1980831691505092915050565b6000620006088383620005da565b9150826002028217905092915050565b6200062382620003cd565b67ffffffffffffffff8111156200063f576200063e620001e4565b5b6200064b825462000407565b620006588282856200057d565b600060209050601f8311600181146200069057600084156200067b578287015190505b620006878582620005fa565b865550620006f7565b601f198416620006a0866200043c565b60005b82811015620006ca57848901518255600182019150602085019450602081019050620006a3565b86831015620006ea5784890151620006e6601f891682620005da565b8355505b6001600288020188555050505b505050505050565b600073ffffffffffffffffffffffffffffffffffffffff82169050919050565b60006200072c82620006ff565b9050919050565b6200073e816200071f565b82525050565b60006020820190506200075b600083018462000733565b92915050565b61126980620007716000396000f3fe608060405234801561001057600080fd5b50600436106100ea5760003560e01c8063715018a61161008c57806395d89b411161006657806395d89b4114610239578063a9059cbb14610257578063dd62ed3e14610287578063f2fde38b146102b7576100ea565b8063715018a6146101f557806379cc6790146101ff5780638da5cb5b1461021b576100ea565b806323b872dd116100c857806323b872dd1461015b578063313ce5671461018b57806340c10f19146101a957806370a08231146101c5576100ea565b806306fdde03146100ef578063095ea7b31461010d57806318160ddd1461013d575b600080fd5b6100f76102d3565b6040516101049190610ebd565b60405180910390f35b61012760048036038101906101229190610f78565b610365565b6040516101349190610fd3565b60405180910390f35b610145610388565b6040516101529190610ffd565b60405180910390f35b61017560048036038101906101709190611018565b610392565b6040516101829190610fd3565b60405180910390f35b6101936103c1565b6040516101a09190611087565b60405180910390f35b6101c360048036038101906101be9190610f78565b6103ca565b005b6101df60048036038101906101da91906110a2565b6103e0565b6040516101ec9190610ffd565b60405180910390f35b6101fd610428565b005b61021960048036038101906102149190610f78565b61043c565b005b610223610452565b60405161023091906110de565b60405180910390f35b61024161047c565b60405161024e9190610ebd565b60405180910390f35b610271600480360381019061026c9190610f78565b61050e565b60405161027e9190610fd3565b60405180910390f35b6102a1600480360381019061029c91906110f9565b610531565b6040516102ae9190610ffd565b60405180910390f35b6102d160048036038101906102cc91906110a2565b6105b8565b005b6060600380546102e290611168565b80601f016020809104026020016040519081016040528092919081815260200182805461030e90611168565b801561035b5780601f106103305761010080835404028352916020019161035b565b820191906000526020600020905b81548152906001019060200180831161033e57829003601f168201915b5050505050905090565b60008061037061063e565b905061037d818585610646565b600191505092915050565b6000600254905090565b60008061039d61063e565b90506103aa858285610658565b6103b58585856106ec565b60019150509392505050565b60006012905090565b6103d26107e0565b6103dc8282610867565b5050565b60008060008373ffffffffffffffffffffffffffffffffffffffff1673ffffffffffffffffffffffffffffffffffffffff168152602001908152602001600020549050919050565b6104306107e0565b61043a60006108e9565b565b6104446107e0565b61044e82826109af565b5050565b6000600560009054906101000a900473ffffffffffffffffffffffffffffffffffffffff16905090565b60606004805461048b90611168565b80601f01602080910402602001604051908101604052809291908181526020018280546104b790611168565b80156105045780601f106104d957610100808354040283529160200191610504565b820191906000526020600020905b8154815290600101906020018083116104e757829003601f168201915b5050505050905090565b60008061051961063e565b90506105268185856106ec565b600191505092915050565b6000600160008473ffffffffffffffffffffffffffffffffffffffff1673ffffffffffffffffffffffffffffffffffffffff16815260200190815260200160002060008373ffffffffffffffffffffffffffffffffffffffff1673ffffffffffffffffffffffffffffffffffffffff16815260200190815260200160002054905092915050565b6105c06107e0565b600073ffffffffffffffffffffffffffffffffffffffff168173ffffffffffffffffffffffffffffffffffffffff16036106325760006040517f1e4fbdf700000000000000000000000000000000000000000000000000000000815260040161062991906110de565b60405180910390fd5b61063b816108e9565b50565b600033905090565b6106538383836001610a31565b505050565b60006106648484610531565b90507fffffffffffffffffffffffffffffffffffffffffffffffffffffffffffffffff81146106e657818110156106d6578281836040517ffb8f41b20000000000000000000000000000000000000000000000000000000081526004016106cd93929190611199565b60405180910390fd5b6106e584848484036000610a31565b5b50505050565b600073ffffffffffffffffffffffffffffffffffffffff168373ffffffffffffffffffffffffffffffffffffffff160361075e5760006040517f96c6fd1e00000000000000000000000000000000000000000000000000000000815260040161075591906110de565b60405180910390fd5b600073ffffffffffffffffffffffffffffffffffffffff168273ffffffffffffffffffffffffffffffffffffffff16036107d05760006040517fec442f050000000000000000000000000000000000000000000000000000000081526004016107c791906110de565b60405180910390fd5b6107db838383610c08565b505050565b6107e861063e565b73ffffffffffffffffffffffffffffffffffffffff16610806610452565b73ffffffffffffffffffffffffffffffffffffffff16146108655761082961063e565b6040517f118cdaa700000000000000000000000000000000000000000000000000000000815260040161085c91906110de565b60405180910390fd5b565b600073ffffffffffffffffffffffffffffffffffffffff168273ffffffffffffffffffffffffffffffffffffffff16036108d95760006040517fec442f050000000000000000000000000000000000000000000000000000000081526004016108d091906110de565b60405180910390fd5b6108e560008383610c08565b5050565b6000600560009054906101000a900473ffffffffffffffffffffffffffffffffffffffff16905081600560006101000a81548173ffffffffffffffffffffffffffffffffffffffff021916908373ffffffffffffffffffffffffffffffffffffffff1602179055508173ffffffffffffffffffffffffffffffffffffffff168173ffffffffffffffffffffffffffffffffffffffff167f8be0079c531659141344cd1fd0a4f28419497f9722a3daafe3b4186f6b6457e060405160405180910390a35050565b600073ffffffffffffffffffffffffffffffffffffffff168273ffffffffffffffffffffffffffffffffffffffff1603610a215760006040517f96c6fd1e000000000000000000000000000000000000000000000000000000008152600401610a1891906110de565b60405180910390fd5b610a2d82600083610c08565b5050565b600073ffffffffffffffffffffffffffffffffffffffff168473ffffffffffffffffffffffffffffffffffffffff1603610aa35760006040517fe602df05000000000000000000000000000000000000000000000000000000008152600401610a9a91906110de565b60405180910390fd5b600073ffffffffffffffffffffffffffffffffffffffff168373ffffffffffffffffffffffffffffffffffffffff1603610b155760006040517f94280d62000000000000000000000000000000000000000000000000000000008152600401610b0c91906110de565b60405180910390fd5b81600160008673ffffffffffffffffffffffffffffffffffffffff1673ffffffffffffffffffffffffffffffffffffffff16815260200190815260200160002060008573ffffffffffffffffffffffffffffffffffffffff1673ffffffffffffffffffffffffffffffffffffffff168152602001908152602001600020819055508015610c02578273ffffffffffffffffffffffffffffffffffffffff168473ffffffffffffffffffffffffffffffffffffffff167f8c5be1e5ebec7d5bd14f71427d1e84f3dd0314c0f7b2291e5b200ac8c7c3b92584604051610bf99190610ffd565b60405180910390a35b50505050565b600073ffffffffffffffffffffffffffffffffffffffff168373ffffffffffffffffffffffffffffffffffffffff1603610c5a578060026000828254610c4e91906111ff565b92505081905550610d2d565b60008060008573ffffffffffffffffffffffffffffffffffffffff1673ffffffffffffffffffffffffffffffffffffffff16815260200190815260200160002054905081811015610ce6578381836040517fe450d38c000000000000000000000000000000000000000000000000000000008152600401610cdd93929190611199565b60405180910390fd5b8181036000808673ffffffffffffffffffffffffffffffffffffffff1673ffffffffffffffffffffffffffffffffffffffff16815260200190815260200160002081905550505b600073ffffffffffffffffffffffffffffffffffffffff168273ffffffffffffffffffffffffffffffffffffffff1603610d765780600260008282540392505081905550610dc3565b806000808473ffffffffffffffffffffffffffffffffffffffff1673ffffffffffffffffffffffffffffffffffffffff168152602001908152602001600020600082825401925050819055505b8173ffffffffffffffffffffffffffffffffffffffff168373ffffffffffffffffffffffffffffffffffffffff167fddf252ad1be2c89b69c2b068fc378daa952ba7f163c4a11628f55a4df523b3ef83604051610e209190610ffd565b60405180910390a3505050565b600081519050919050565b600082825260208201905092915050565b60005b83811015610e67578082015181840152602081019050610e4c565b60008484015250505050565b6000601f19601f8301169050919050565b6000610e8f82610e2d565b610e998185610e38565b9350610ea9818560208601610e49565b610eb281610e73565b840191505092915050565b60006020820190508181036000830152610ed78184610e84565b905092915050565b600080fd5b600073ffffffffffffffffffffffffffffffffffffffff82169050919050565b6000610f0f82610ee4565b9050919050565b610f1f81610f04565b8114610f2a57600080fd5b50565b600081359050610f3c81610f16565b92915050565b6000819050919050565b610f5581610f42565b8114610f6057600080fd5b50565b600081359050610f7281610f4c565b92915050565b60008060408385031215610f8f57610f8e610edf565b5b6000610f9d85828601610f2d565b9250506020610fae85828601610f63565b9150509250929050565b60008115159050919050565b610fcd81610fb8565b82525050565b6000602082019050610fe86000830184610fc4565b92915050565b610ff781610f42565b82525050565b60006020820190506110126000830184610fee565b92915050565b60008060006060848603121561103157611030610edf565b5b600061103f86828701610f2d565b935050602061105086828701610f2d565b925050604061106186828701610f63565b9150509250925092565b600060ff82169050919050565b6110818161106b565b82525050565b600060208201905061109c6000830184611078565b92915050565b6000602082840312156110b8576110b7610edf565b5b60006110c684828501610f2d565b91505092915050565b6110d881610f04565b82525050565b60006020820190506110f360008301846110cf565b92915050565b600080604083850312156111105761110f610edf565b5b600061111e85828601610f2d565b925050602061112f85828601610f2d565b9150509250929050565b7f4e487b7100000000000000000000000000000000000000000000000000000000600052602260045260246000fd5b6000600282049050600182168061118057607f821691505b60208210810361119357611192611139565b5b50919050565b60006060820190506111ae60008301866110cf565b6111bb6020830185610fee565b6111c86040830184610fee565b949350505050565b7f4e487b7100000000000000000000000000000000000000000000000000000000600052601160045260246000fd5b600061120a82610f42565b915061121583610f42565b925082820190508082111561122d5761122c6111d0565b5b9291505056fea2646970667358221220422e22c6d4b127850b8adf960f80f519f8146d6197bd56871dc6de86072947ce64736f6c63430008180033a2646970667358221220a21ff0ef83a6c38b4656f655f04e59e579a25b41d157736175e63a43f419107e64736f6c63430008180033",
  "linkReferences": {},
  "deployedLinkReferences": {}
}